{"abi":[{"type":"function","name":"cancelL1ToL2Message","inputs":[{"name":"toAddress","type":"uint256","internalType":"uint256"},{"name":"selector","type":"uint256","internalType":"uint256"},{"name":"payload","type":"uint256[]","internalType":"uint256[]"},{"name":"nonce","type":"uint256","internalType":"uint256"}],"outputs":[{"name":"","type":"bytes32","internalType":"bytes32"}],"stateMutability":"nonpayable"},{"type":"function","name":"consumeMessageFromL2","inputs":[{"name":"fromAddress","type":"uint256","internalType":"uint256"},{"name":"payload","type":"uint256[]","internalType":"uint256[]"}],"outputs":[{"name":"","type":"bytes32","internalType":"bytes32"}],"stateMutability":"nonpayable"},{"type":"function","name":"getMaxL1MsgFee","inputs":[],"outputs":[{"name":"","type":"uint256","internalType":"uint256"}],"stateMutability":"pure"},{"type":"function","name":"l1ToL2MessageCancellations","inputs":[{"name":"msgHash","type":"bytes32","internalType":"bytes32"}],"outputs":[{"name":"","type":"uint256","internalType":"uint256"}],"stateMutability":"view"},{"type":"function","name":"l1ToL2MessageNonce","inputs":[],"outputs":[{"name":"","type":"uint256","internalType":"uint256"}],"stateMutability":"view"},{"type":"function","name":"l1ToL2Messages","inputs":[{"name":"msgHash","type":"bytes32","internalType":"bytes32"}],"outputs":[{"name":"","type":"uint256","internalType":"uint256"}],"stateMutability":"view"},{"type":"function","name":"l2ToL1Messages","inputs":[{"name":"msgHash","type":"bytes32","internalType":"bytes32"}],"outputs":[{"name":"","type":"uint256","internalType":"uint256"}],"stateMutability":"view"},{"type":"function","name":"messageCancellationDelay","inputs":[],"outputs":[{"name":"","type":"uint256","internalType":"uint256"}],"stateMutability":"view"},{"type":"function","name":"sendMessageToL2","inputs":[{"name":"toAddress","type":"uint256","internalType":"uint256"},{"name":"selector","type":"uint256","internalType":"uint256"},{"name":"payload","type":"uint256[]","internalType":"uint256[]"}],"outputs":[{"name":"","type":"bytes32","internalType":"bytes32"},{"name":"","type":"uint256","internalType":"uint256"}],"stateMutability":"payable"},{"type":"function","name":"startL1ToL2MessageCancellation","inputs":[{"name":"toAddress","type":"uint256","internalType":"uint256"},{"name":"selector","type":"uint256","internalType":"uint256"},{"name":"payload","type":"uint256[]","internalType":"uint256[]"},{"name":"nonce","type":"uint256","internalType":"uint256"}],"outputs":[{"name":"","type":"bytes32","internalType":"bytes32"}],"stateMutability":"nonpayable"},{"type":"event","name":"ConsumedMessageToL1","inputs":[{"name":"fromAddress","type":"uint256","indexed":true,"internalType":"uint256"},{"name":"toAddress","type":"address","indexed":true,"internalType":"address"},{"name":"payload","type":"uint256[]","indexed":false,"internalType":"uint256[]"}],"anonymous":false},{"type":"event","name":"ConsumedMessageToL2","inputs":[{"name":"fromAddress","type":"address","indexed":true,"internalType":"address"},{"name":"toAddress","type":"uint256","indexed":true,"internalType":"uint256"},{"name":"selector","type":"uint256","indexed":true,"internalType":"uint256"},{"name":"payload","type":"uint256[]","indexed":false,"internalType":"uint256[]"},{"name":"nonce","type":"uint256","indexed":false,"internalType":"uint256"}],"anonymous":false},{"type":"event","name":"LogMessageToL1","inputs":[{"name":"fromAddress","type":"uint256","indexed":true,"internalType":"uint256"},{"name":"toAddress","type":"address","indexed":true,"internalType":"address"},{"name":"payload","type":"uint256[]","indexed":false,"internalType":"uint256[]"}],"anonymous":false},{"type":"event","name":"LogMessageToL2","inputs":[{"name":"fromAddress","type":"address","indexed":true,"internalType":"address"},{"name":"toAddress","type":"uint256","indexed":true,"internalType":"uint256"},{"name":"selector","type":"uint256","indexed":true,"internalType":"uint256"},{"name":"payload","type":"uint256[]","indexed":false,"internalType":"uint256[]"},{"name":"nonce","type":"uint256","indexed":false,"internalType":"uint256"},{"name":"fee","type":"uint256","indexed":false,"internalType":"uint256"}],"anonymous":false},{"type":"event","name":"MessageToL2Canceled","inputs":[{"name":"fromAddress","type":"address","indexed":true,"internalType":"address"},{"name":"toAddress","type":"uint256","indexed":true,"internalType":"uint256"},{"name":"selector","type":"uint256","indexed":true,"internalType":"uint256"},{"name":"payload","type":"uint256[]","indexed":false,"internalType":"uint256[]"},{"name":"nonce","type":"uint256","indexed":false,"internalType":"uint256"}],"anonymous":false},{"type":"event","name":"MessageToL2CancellationStarted","inputs":[{"name":"fromAddress","type":"address","indexed":true,"internalType":"address"},{"name":"toAddress","type":"uint256","indexed":true,"internalType":"uint256"},{"name":"selector","type":"uint256","indexed":true,"internalType":"uint256"},{"name":"payload","type":"uint256[]","indexed":false,"internalType":"uint256[]"},{"name":"nonce","type":"uint256","indexed":false,"internalType":"uint256"}],"anonymous":false}],"bytecode":{"object":"0x608060405234801561001057600080fd5b50610d2a806100206000396000f3fe6080604052600436106100915760003560e01c806377c7d7a91161005957806377c7d7a9146101415780637a98660b146101615780638303bd8a146101815780639be446bf14610196578063a46efaf3146101b657600080fd5b8063018cccdf146100965780632c9dd5c0146100be5780633e3aa6c5146100de57806354eccba4146101065780636170ff1b14610121575b600080fd5b3480156100a257600080fd5b506100ab6101d6565b6040519081526020015b60405180910390f35b3480156100ca57600080fd5b506100ab6100d93660046109a6565b61021b565b6100f16100ec3660046109f2565b610339565b604080519283526020830191909152016100b5565b34801561011257600080fd5b50670de0b6b3a76400006100ab565b34801561012d57600080fd5b506100ab61013c366004610a45565b6104ce565b34801561014d57600080fd5b506100ab61015c366004610aa0565b6106ea565b34801561016d57600080fd5b506100ab61017c366004610a45565b610705565b34801561018d57600080fd5b506100ab6107e3565b3480156101a257600080fd5b506100ab6101b1366004610aa0565b610806565b3480156101c257600080fd5b506100ab6101d1366004610aa0565b610810565b60006102166040518060400160405280602081526020017f535441524b4e45545f312e305f4d5347494e475f4c31544f4c325f4e4f4e434581525061081a565b905090565b60405160009081906102399086903390869088908290602001610ae2565b604051602081830303815290604052805190602001209050600061025b61084e565b60008381526020919091526040902054116102bd5760405162461bcd60e51b815260206004820152601a60248201527f494e56414c49445f4d4553534147455f544f5f434f4e53554d4500000000000060448201526064015b60405180910390fd5b336001600160a01b0316857f7a06c571aa77f34d9706c51e5d8122b5595aebeaa34233bfe866f22befb973b186866040516102f9929190610b3e565b60405180910390a3600161030b61084e565b6000838152602001908152602001600020600082825461032b9190610b70565b909155509095945050505050565b600080600034116103965760405162461bcd60e51b815260206004820152602160248201527f4c315f4d53475f4645455f4d5553545f42455f475245415445525f5448414e5f6044820152600360fc1b60648201526084016102b4565b670de0b6b3a76400003411156103ee5760405162461bcd60e51b815260206004820152601760248201527f4d41585f4c315f4d53475f4645455f455843454544454400000000000000000060448201526064016102b4565b60006103f86101d6565b90506104456040518060400160405280602081526020017f535441524b4e45545f312e305f4d5347494e475f4c31544f4c325f4e4f4e43458152508260016104409190610b89565b610871565b8587336001600160a01b03167fdb80dd488acf86d17c747445b0eabb5d57c541d3bd7b6b87af987858e5066b2b888886346040516104869493929190610b9c565b60405180910390a4600061049d88888888866108a4565b90506104aa346001610b89565b6104b26108e5565b6000838152602091909152604090205597909650945050505050565b60008486336001600160a01b03167f8abd2ec2e0a10c82f5b60ea00455fa96c41fd144f225fcc52b8d83d94f803ed887878760405161050f93929190610bc3565b60405180910390a4600061052687878787876108a4565b905060006105326108e5565b60008381526020919091526040812054915081900361058a5760405162461bcd60e51b81526020600482015260146024820152731393d7d35154d4d051d157d513d7d0d05390d15360621b60448201526064016102b4565b6000610594610908565b6000848152602091909152604081205491508190036106005760405162461bcd60e51b815260206004820152602260248201527f4d4553534147455f43414e43454c4c4154494f4e5f4e4f545f52455155455354604482015261115160f21b60648201526084016102b4565b600061060a6107e3565b6106149083610b89565b9050818110156106665760405162461bcd60e51b815260206004820152601c60248201527f43414e43454c5f414c4c4f5745445f54494d455f4f564552464c4f570000000060448201526064016102b4565b804210156106c25760405162461bcd60e51b8152602060048201526024808201527f4d4553534147455f43414e43454c4c4154494f4e5f4e4f545f414c4c4f57454460448201526317d6515560e21b60648201526084016102b4565b60006106cc6108e5565b60008681526020919091526040902055509198975050505050505050565b60006106f46108e5565b600092835260205250604090205490565b60008486336001600160a01b03167f2e00dccd686fd6823ec7dc3e125582aa82881b6ff5f6b5a73856e1ea8338a3be87878760405161074693929190610bc3565b60405180910390a4600061075d87878787876108a4565b905060006107696108e5565b600083815260209190915260409020549050806107bf5760405162461bcd60e51b81526020600482015260146024820152731393d7d35154d4d051d157d513d7d0d05390d15360621b60448201526064016102b4565b426107c8610908565b60008481526020919091526040902055509695505050505050565b60006102166040518060600160405280602d8152602001610c7f602d913961081a565b60006106f4610908565b60006106f461084e565b6000808260405160200161082e9190610be7565b60408051601f198184030181529190528051602090910120549392505050565b6000610216604051806060016040528060238152602001610cac60239139610927565b6000826040516020016108849190610be7565b604051602081830303815290604052805190602001209050818155505050565b6040516000906108c490339088908590899088908a908290602001610c16565b60405160208183030381529060405280519060200120905095945050505050565b6000610216604051806060016040528060268152602001610ccf60269139610927565b6000610216604051806060016040528060308152602001610c4f603091395b6000808260405160200161093b9190610be7565b60408051601f1981840301815291905280516020909101209392505050565b60008083601f84011261096c57600080fd5b50813567ffffffffffffffff81111561098457600080fd5b6020830191508360208260051b850101111561099f57600080fd5b9250929050565b6000806000604084860312156109bb57600080fd5b83359250602084013567ffffffffffffffff8111156109d957600080fd5b6109e58682870161095a565b9497909650939450505050565b60008060008060608587031215610a0857600080fd5b8435935060208501359250604085013567ffffffffffffffff811115610a2d57600080fd5b610a398782880161095a565b95989497509550505050565b600080600080600060808688031215610a5d57600080fd5b8535945060208601359350604086013567ffffffffffffffff811115610a8257600080fd5b610a8e8882890161095a565b96999598509660600135949350505050565b600060208284031215610ab257600080fd5b5035919050565b60006001600160fb1b03831115610acf57600080fd5b8260051b80838637939093019392505050565b8581528460208201528360408201526000610b01606083018486610ab9565b979650505050505050565b81835260006001600160fb1b03831115610b2557600080fd5b8260051b80836020870137939093016020019392505050565b602081526000610b52602083018486610b0c565b949350505050565b634e487b7160e01b600052601160045260246000fd5b81810381811115610b8357610b83610b5a565b92915050565b80820180821115610b8357610b83610b5a565b606081526000610bb0606083018688610b0c565b6020830194909452506040015292915050565b604081526000610bd7604083018587610b0c565b9050826020830152949350505050565b6000825160005b81811015610c085760208186018101518583015201610bee565b506000920191825250919050565b8781528660208201528560408201528460608201528360808201526000610c4160a083018486610ab9565b999850505050505050505056fe535441524b4e45545f312e305f4d5347494e475f4c31544f4c325f43414e43454c4c4154494f4e5f4d41505050494e47535441524b4e45545f312e305f4d5347494e475f4c31544f4c325f43414e43454c4c4154494f4e5f44454c4159535441524b4e45545f312e305f4d5347494e475f4c32544f4c315f4d41505050494e47535441524b4e45545f312e305f4d5347494e475f4c31544f4c325f4d41505050494e475f5632a2646970667358221220f4e57aa2b8b573ea045e356de8708b0a51db47b72d244820ecb6fa531199820564736f6c63430008170033","linkReferences":{}},"methodIdentifiers":{"cancelL1ToL2Message(uint256,uint256,uint256[],uint256)":"6170ff1b","consumeMessageFromL2(uint256,uint256[])":"2c9dd5c0","getMaxL1MsgFee()":"54eccba4","l1ToL2MessageCancellations(bytes32)":"9be446bf","l1ToL2MessageNonce()":"018cccdf","l1ToL2Messages(bytes32)":"77c7d7a9","l2ToL1Messages(bytes32)":"a46efaf3","messageCancellationDelay()":"8303bd8a","sendMessageToL2(uint256,uint256,uint256[])":"3e3aa6c5","startL1ToL2MessageCancellation(uint256,uint256,uint256[],uint256)":"7a98660b"},"id":19}