{"abi":[{"type":"function","name":"addMessageHashesFromL2","inputs":[{"name":"msgHashes","type":"uint256[]","internalType":"uint256[]"}],"outputs":[],"stateMutability":"payable"},{"type":"function","name":"cancelL1ToL2Message","inputs":[{"name":"toAddress","type":"uint256","internalType":"uint256"},{"name":"selector","type":"uint256","internalType":"uint256"},{"name":"payload","type":"uint256[]","internalType":"uint256[]"},{"name":"nonce","type":"uint256","internalType":"uint256"}],"outputs":[{"name":"","type":"bytes32","internalType":"bytes32"}],"stateMutability":"nonpayable"},{"type":"function","name":"consumeMessageFromL2","inputs":[{"name":"fromAddress","type":"uint256","internalType":"uint256"},{"name":"payload","type":"uint256[]","internalType":"uint256[]"}],"outputs":[{"name":"","type":"bytes32","internalType":"bytes32"}],"stateMutability":"nonpayable"},{"type":"function","name":"getMaxL1MsgFee","inputs":[],"outputs":[{"name":"","type":"uint256","internalType":"uint256"}],"stateMutability":"pure"},{"type":"function","name":"l1ToL2MessageCancellations","inputs":[{"name":"msgHash","type":"bytes32","internalType":"bytes32"}],"outputs":[{"name":"","type":"uint256","internalType":"uint256"}],"stateMutability":"view"},{"type":"function","name":"l1ToL2MessageNonce","inputs":[],"outputs":[{"name":"","type":"uint256","internalType":"uint256"}],"stateMutability":"view"},{"type":"function","name":"l1ToL2Messages","inputs":[{"name":"msgHash","type":"bytes32","internalType":"bytes32"}],"outputs":[{"name":"","type":"uint256","internalType":"uint256"}],"stateMutability":"view"},{"type":"function","name":"l2ToL1Messages","inputs":[{"name":"msgHash","type":"bytes32","internalType":"bytes32"}],"outputs":[{"name":"","type":"uint256","internalType":"uint256"}],"stateMutability":"view"},{"type":"function","name":"messageCancellationDelay","inputs":[],"outputs":[{"name":"","type":"uint256","internalType":"uint256"}],"stateMutability":"view"},{"type":"function","name":"sendMessageToL2","inputs":[{"name":"toAddress","type":"uint256","internalType":"uint256"},{"name":"selector","type":"uint256","internalType":"uint256"},{"name":"payload","type":"uint256[]","internalType":"uint256[]"}],"outputs":[{"name":"","type":"bytes32","internalType":"bytes32"},{"name":"","type":"uint256","internalType":"uint256"}],"stateMutability":"payable"},{"type":"function","name":"startL1ToL2MessageCancellation","inputs":[{"name":"toAddress","type":"uint256","internalType":"uint256"},{"name":"selector","type":"uint256","internalType":"uint256"},{"name":"payload","type":"uint256[]","internalType":"uint256[]"},{"name":"nonce","type":"uint256","internalType":"uint256"}],"outputs":[{"name":"","type":"bytes32","internalType":"bytes32"}],"stateMutability":"nonpayable"},{"type":"event","name":"ConsumedMessageToL1","inputs":[{"name":"fromAddress","type":"uint256","indexed":true,"internalType":"uint256"},{"name":"toAddress","type":"address","indexed":true,"internalType":"address"},{"name":"payload","type":"uint256[]","indexed":false,"internalType":"uint256[]"}],"anonymous":false},{"type":"event","name":"ConsumedMessageToL2","inputs":[{"name":"fromAddress","type":"address","indexed":true,"internalType":"address"},{"name":"toAddress","type":"uint256","indexed":true,"internalType":"uint256"},{"name":"selector","type":"uint256","indexed":true,"internalType":"uint256"},{"name":"payload","type":"uint256[]","indexed":false,"internalType":"uint256[]"},{"name":"nonce","type":"uint256","indexed":false,"internalType":"uint256"}],"anonymous":false},{"type":"event","name":"LogMessageToL1","inputs":[{"name":"fromAddress","type":"uint256","indexed":true,"internalType":"uint256"},{"name":"toAddress","type":"address","indexed":true,"internalType":"address"},{"name":"payload","type":"uint256[]","indexed":false,"internalType":"uint256[]"}],"anonymous":false},{"type":"event","name":"LogMessageToL2","inputs":[{"name":"fromAddress","type":"address","indexed":true,"internalType":"address"},{"name":"toAddress","type":"uint256","indexed":true,"internalType":"uint256"},{"name":"selector","type":"uint256","indexed":true,"internalType":"uint256"},{"name":"payload","type":"uint256[]","indexed":false,"internalType":"uint256[]"},{"name":"nonce","type":"uint256","indexed":false,"internalType":"uint256"},{"name":"fee","type":"uint256","indexed":false,"internalType":"uint256"}],"anonymous":false},{"type":"event","name":"MessageHashesAddedFromL2","inputs":[{"name":"hashes","type":"uint256[]","indexed":false,"internalType":"uint256[]"}],"anonymous":false},{"type":"event","name":"MessageToL2Canceled","inputs":[{"name":"fromAddress","type":"address","indexed":true,"internalType":"address"},{"name":"toAddress","type":"uint256","indexed":true,"internalType":"uint256"},{"name":"selector","type":"uint256","indexed":true,"internalType":"uint256"},{"name":"payload","type":"uint256[]","indexed":false,"internalType":"uint256[]"},{"name":"nonce","type":"uint256","indexed":false,"internalType":"uint256"}],"anonymous":false},{"type":"event","name":"MessageToL2CancellationStarted","inputs":[{"name":"fromAddress","type":"address","indexed":true,"internalType":"address"},{"name":"toAddress","type":"uint256","indexed":true,"internalType":"uint256"},{"name":"selector","type":"uint256","indexed":true,"internalType":"uint256"},{"name":"payload","type":"uint256[]","indexed":false,"internalType":"uint256[]"},{"name":"nonce","type":"uint256","indexed":false,"internalType":"uint256"}],"anonymous":false}],"bytecode":{"object":"0x608060405234801561001057600080fd5b50610e42806100206000396000f3fe60806040526004361061009c5760003560e01c806377c7d7a91161006457806377c7d7a91461014c5780637a98660b1461016c5780638303bd8a1461018c5780639be446bf146101a1578063a46efaf3146101c1578063db3c5270146101e157600080fd5b8063018cccdf146100a15780632c9dd5c0146100c95780633e3aa6c5146100e957806354eccba4146101115780636170ff1b1461012c575b600080fd5b3480156100ad57600080fd5b506100b66101f6565b6040519081526020015b60405180910390f35b3480156100d557600080fd5b506100b66100e4366004610a66565b61023b565b6100fc6100f7366004610ab2565b610359565b604080519283526020830191909152016100c0565b34801561011d57600080fd5b50670de0b6b3a76400006100b6565b34801561013857600080fd5b506100b6610147366004610b05565b6104ee565b34801561015857600080fd5b506100b6610167366004610b60565b61070a565b34801561017857600080fd5b506100b6610187366004610b05565b610725565b34801561019857600080fd5b506100b6610803565b3480156101ad57600080fd5b506100b66101bc366004610b60565b610826565b3480156101cd57600080fd5b506100b66101dc366004610b60565b610830565b6101f46101ef366004610b79565b61083a565b005b60006102366040518060400160405280602081526020017f535441524b4e45545f312e305f4d5347494e475f4c31544f4c325f4e4f4e43458152506108da565b905090565b60405160009081906102599086903390869088908290602001610be4565b604051602081830303815290604052805190602001209050600061027b61090e565b60008381526020919091526040902054116102dd5760405162461bcd60e51b815260206004820152601a60248201527f494e56414c49445f4d4553534147455f544f5f434f4e53554d4500000000000060448201526064015b60405180910390fd5b336001600160a01b0316857f7a06c571aa77f34d9706c51e5d8122b5595aebeaa34233bfe866f22befb973b18686604051610319929190610c40565b60405180910390a3600161032b61090e565b6000838152602001908152602001600020600082825461034b9190610c72565b909155509095945050505050565b600080600034116103b65760405162461bcd60e51b815260206004820152602160248201527f4c315f4d53475f4645455f4d5553545f42455f475245415445525f5448414e5f6044820152600360fc1b60648201526084016102d4565b670de0b6b3a764000034111561040e5760405162461bcd60e51b815260206004820152601760248201527f4d41585f4c315f4d53475f4645455f455843454544454400000000000000000060448201526064016102d4565b60006104186101f6565b90506104656040518060400160405280602081526020017f535441524b4e45545f312e305f4d5347494e475f4c31544f4c325f4e4f4e43458152508260016104609190610c8b565b610931565b8587336001600160a01b03167fdb80dd488acf86d17c747445b0eabb5d57c541d3bd7b6b87af987858e5066b2b888886346040516104a69493929190610c9e565b60405180910390a460006104bd8888888886610964565b90506104ca346001610c8b565b6104d26109a5565b6000838152602091909152604090205597909650945050505050565b60008486336001600160a01b03167f8abd2ec2e0a10c82f5b60ea00455fa96c41fd144f225fcc52b8d83d94f803ed887878760405161052f93929190610cc5565b60405180910390a460006105468787878787610964565b905060006105526109a5565b6000838152602091909152604081205491508190036105aa5760405162461bcd60e51b81526020600482015260146024820152731393d7d35154d4d051d157d513d7d0d05390d15360621b60448201526064016102d4565b60006105b46109c8565b6000848152602091909152604081205491508190036106205760405162461bcd60e51b815260206004820152602260248201527f4d4553534147455f43414e43454c4c4154494f4e5f4e4f545f52455155455354604482015261115160f21b60648201526084016102d4565b600061062a610803565b6106349083610c8b565b9050818110156106865760405162461bcd60e51b815260206004820152601c60248201527f43414e43454c5f414c4c4f5745445f54494d455f4f564552464c4f570000000060448201526064016102d4565b804210156106e25760405162461bcd60e51b8152602060048201526024808201527f4d4553534147455f43414e43454c4c4154494f4e5f4e4f545f414c4c4f57454460448201526317d6515560e21b60648201526084016102d4565b60006106ec6109a5565b60008681526020919091526040902055509198975050505050505050565b60006107146109a5565b600092835260205250604090205490565b60008486336001600160a01b03167f2e00dccd686fd6823ec7dc3e125582aa82881b6ff5f6b5a73856e1ea8338a3be87878760405161076693929190610cc5565b60405180910390a4600061077d8787878787610964565b905060006107896109a5565b600083815260209190915260409020549050806107df5760405162461bcd60e51b81526020600482015260146024820152731393d7d35154d4d051d157d513d7d0d05390d15360621b60448201526064016102d4565b426107e86109c8565b60008481526020919091526040902055509695505050505050565b60006102366040518060600160405280602d8152602001610d97602d91396108da565b60006107146109c8565b600061071461090e565b60005b8181101561089d57600083838381811061085957610859610ce9565b9050602002013560001b9050600161086f61090e565b6000838152602001908152602001600020600082825461088f9190610c8b565b90915550505060010161083d565b507e31e49c5c8cbb8204c84525dfc1a145e06e35f873b703ce44df65b9516fb17a82826040516108ce929190610c40565b60405180910390a15050565b600080826040516020016108ee9190610cff565b60408051601f198184030181529190528051602090910120549392505050565b6000610236604051806060016040528060238152602001610dc4602391396109e7565b6000826040516020016109449190610cff565b604051602081830303815290604052805190602001209050818155505050565b60405160009061098490339088908590899088908a908290602001610d2e565b60405160208183030381529060405280519060200120905095945050505050565b6000610236604051806060016040528060268152602001610de7602691396109e7565b6000610236604051806060016040528060308152602001610d67603091395b600080826040516020016109fb9190610cff565b60408051601f1981840301815291905280516020909101209392505050565b60008083601f840112610a2c57600080fd5b50813567ffffffffffffffff811115610a4457600080fd5b6020830191508360208260051b8501011115610a5f57600080fd5b9250929050565b600080600060408486031215610a7b57600080fd5b83359250602084013567ffffffffffffffff811115610a9957600080fd5b610aa586828701610a1a565b9497909650939450505050565b60008060008060608587031215610ac857600080fd5b8435935060208501359250604085013567ffffffffffffffff811115610aed57600080fd5b610af987828801610a1a565b95989497509550505050565b600080600080600060808688031215610b1d57600080fd5b8535945060208601359350604086013567ffffffffffffffff811115610b4257600080fd5b610b4e88828901610a1a565b96999598509660600135949350505050565b600060208284031215610b7257600080fd5b5035919050565b60008060208385031215610b8c57600080fd5b823567ffffffffffffffff811115610ba357600080fd5b610baf85828601610a1a565b90969095509350505050565b60006001600160fb1b03831115610bd157600080fd5b8260051b80838637939093019392505050565b8581528460208201528360408201526000610c03606083018486610bbb565b979650505050505050565b81835260006001600160fb1b03831115610c2757600080fd5b8260051b80836020870137939093016020019392505050565b602081526000610c54602083018486610c0e565b949350505050565b634e487b7160e01b600052601160045260246000fd5b81810381811115610c8557610c85610c5c565b92915050565b80820180821115610c8557610c85610c5c565b606081526000610cb2606083018688610c0e565b6020830194909452506040015292915050565b604081526000610cd9604083018587610c0e565b9050826020830152949350505050565b634e487b7160e01b600052603260045260246000fd5b6000825160005b81811015610d205760208186018101518583015201610d06565b506000920191825250919050565b8781528660208201528560408201528460608201528360808201526000610d5960a083018486610bbb565b999850505050505050505056fe535441524b4e45545f312e305f4d5347494e475f4c31544f4c325f43414e43454c4c4154494f4e5f4d41505050494e47535441524b4e45545f312e305f4d5347494e475f4c31544f4c325f43414e43454c4c4154494f4e5f44454c4159535441524b4e45545f312e305f4d5347494e475f4c32544f4c315f4d41505050494e47535441524b4e45545f312e305f4d5347494e475f4c31544f4c325f4d41505050494e475f5632a2646970667358221220c06fa58b32221243aa4a226199b46cba462ff7f2438c9b726b5635ba4a428c6364736f6c63430008170033","linkReferences":{}},"methodIdentifiers":{"addMessageHashesFromL2(uint256[])":"db3c5270","cancelL1ToL2Message(uint256,uint256,uint256[],uint256)":"6170ff1b","consumeMessageFromL2(uint256,uint256[])":"2c9dd5c0","getMaxL1MsgFee()":"54eccba4","l1ToL2MessageCancellations(bytes32)":"9be446bf","l1ToL2MessageNonce()":"018cccdf","l1ToL2Messages(bytes32)":"77c7d7a9","l2ToL1Messages(bytes32)":"a46efaf3","messageCancellationDelay()":"8303bd8a","sendMessageToL2(uint256,uint256,uint256[])":"3e3aa6c5","startL1ToL2MessageCancellation(uint256,uint256,uint256[],uint256)":"7a98660b"},"id":22}