{"abi":[{"type":"constructor","inputs":[{"name":"snMessaging","type":"address","internalType":"address"}],"stateMutability":"nonpayable"},{"type":"function","name":"consumeMessage","inputs":[{"name":"fromAddress","type":"uint256","internalType":"uint256"},{"name":"payload","type":"uint256[]","internalType":"uint256[]"}],"outputs":[],"stateMutability":"nonpayable"},{"type":"function","name":"sendMessage","inputs":[{"name":"contractAddress","type":"uint256","internalType":"uint256"},{"name":"selector","type":"uint256","internalType":"uint256"},{"name":"payload","type":"uint256[]","internalType":"uint256[]"}],"outputs":[],"stateMutability":"payable"},{"type":"event","name":"DebugEvent","inputs":[{"name":"hash1","type":"bytes32","indexed":true,"internalType":"bytes32"},{"name":"hash2","type":"uint256","indexed":true,"internalType":"uint256"}],"anonymous":false}],"bytecode":{"object":"0x608060405234801561001057600080fd5b5060405161046438038061046483398101604081905261002f91610054565b600080546001600160a01b0319166001600160a01b0392909216919091179055610084565b60006020828403121561006657600080fd5b81516001600160a01b038116811461007d57600080fd5b9392505050565b6103d1806100936000396000f3fe6080604052600436106100295760003560e01c8063b66438381461002e578063c5780d6214610043575b600080fd5b61004161003c366004610174565b610063565b005b34801561004f57600080fd5b5061004161005e366004610247565b6100e2565b600054604051633e3aa6c560e01b81526001600160a01b0390911690633e3aa6c5903490610099908790879087906004016102c6565b604080518083038185885af11580156100b6573d6000803e3d6000fd5b50505050506040513d601f19601f820116820180604052508101906100db919061031d565b5050505050565b60005460405162b2775760e61b81526001600160a01b0390911690632c9dd5c09061011590869086908690600401610341565b6020604051808303816000875af1158015610134573d6000803e3d6000fd5b505050506040513d601f19601f820116820180604052508101906101589190610382565b50505050565b634e487b7160e01b600052604160045260246000fd5b60008060006060848603121561018957600080fd5b833592506020808501359250604085013567ffffffffffffffff808211156101b057600080fd5b818701915087601f8301126101c457600080fd5b8135818111156101d6576101d661015e565b8060051b604051601f19603f830116810181811085821117156101fb576101fb61015e565b60405291825284820192508381018501918a83111561021957600080fd5b938501935b828510156102375784358452938501939285019261021e565b8096505050505050509250925092565b60008060006040848603121561025c57600080fd5b83359250602084013567ffffffffffffffff8082111561027b57600080fd5b818601915086601f83011261028f57600080fd5b81358181111561029e57600080fd5b8760208260051b85010111156102b357600080fd5b6020830194508093505050509250925092565b60006060820185835260208560208501526060604085015281855180845260808601915060208701935060005b8181101561030f578451835293830193918301916001016102f3565b509098975050505050505050565b6000806040838503121561033057600080fd5b505080516020909101519092909150565b838152604060208201819052810182905260006001600160fb1b0383111561036857600080fd5b8260051b8085606085013791909101606001949350505050565b60006020828403121561039457600080fd5b505191905056fea2646970667358221220b72ddf4d0079f82f4779b77400b211027beb385c4ee161170547c0a4a194fade64736f6c63430008170033","linkReferences":{}},"methodIdentifiers":{"consumeMessage(uint256,uint256[])":"c5780d62","sendMessage(uint256,uint256,uint256[])":"b6643838"},"id":21}