{"abi":[{"type":"function","name":"DOMAIN_SEPARATOR","inputs":[],"outputs":[{"name":"","type":"bytes32","internalType":"bytes32"}],"stateMutability":"view"},{"type":"function","name":"allowance","inputs":[{"name":"","type":"address","internalType":"address"},{"name":"","type":"address","internalType":"address"}],"outputs":[{"name":"","type":"uint256","internalType":"uint256"}],"stateMutability":"view"},{"type":"function","name":"approve","inputs":[{"name":"spender","type":"address","internalType":"address"},{"name":"amount","type":"uint256","internalType":"uint256"}],"outputs":[{"name":"","type":"bool","internalType":"bool"}],"stateMutability":"nonpayable"},{"type":"function","name":"balanceOf","inputs":[{"name":"","type":"address","internalType":"address"}],"outputs":[{"name":"","type":"uint256","internalType":"uint256"}],"stateMutability":"view"},{"type":"function","name":"decimals","inputs":[],"outputs":[{"name":"","type":"uint8","internalType":"uint8"}],"stateMutability":"view"},{"type":"function","name":"initialize","inputs":[{"name":"_name","type":"string","internalType":"string"},{"name":"_symbol","type":"string","internalType":"string"},{"name":"_decimals","type":"uint8","internalType":"uint8"}],"outputs":[],"stateMutability":"nonpayable"},{"type":"function","name":"name","inputs":[],"outputs":[{"name":"","type":"string","internalType":"string"}],"stateMutability":"view"},{"type":"function","name":"nonces","inputs":[{"name":"","type":"address","internalType":"address"}],"outputs":[{"name":"","type":"uint256","internalType":"uint256"}],"stateMutability":"view"},{"type":"function","name":"permit","inputs":[{"name":"owner","type":"address","internalType":"address"},{"name":"spender","type":"address","internalType":"address"},{"name":"value","type":"uint256","internalType":"uint256"},{"name":"deadline","type":"uint256","internalType":"uint256"},{"name":"v","type":"uint8","internalType":"uint8"},{"name":"r","type":"bytes32","internalType":"bytes32"},{"name":"s","type":"bytes32","internalType":"bytes32"}],"outputs":[],"stateMutability":"nonpayable"},{"type":"function","name":"symbol","inputs":[],"outputs":[{"name":"","type":"string","internalType":"string"}],"stateMutability":"view"},{"type":"function","name":"totalSupply","inputs":[],"outputs":[{"name":"","type":"uint256","internalType":"uint256"}],"stateMutability":"view"},{"type":"function","name":"transfer","inputs":[{"name":"to","type":"address","internalType":"address"},{"name":"amount","type":"uint256","internalType":"uint256"}],"outputs":[{"name":"","type":"bool","internalType":"bool"}],"stateMutability":"nonpayable"},{"type":"function","name":"transferFrom","inputs":[{"name":"from","type":"address","internalType":"address"},{"name":"to","type":"address","internalType":"address"},{"name":"amount","type":"uint256","internalType":"uint256"}],"outputs":[{"name":"","type":"bool","internalType":"bool"}],"stateMutability":"nonpayable"},{"type":"event","name":"Approval","inputs":[{"name":"owner","type":"address","indexed":true,"internalType":"address"},{"name":"spender","type":"address","indexed":true,"internalType":"address"},{"name":"amount","type":"uint256","indexed":false,"internalType":"uint256"}],"anonymous":false},{"type":"event","name":"Transfer","inputs":[{"name":"from","type":"address","indexed":true,"internalType":"address"},{"name":"to","type":"address","indexed":true,"internalType":"address"},{"name":"amount","type":"uint256","indexed":false,"internalType":"uint256"}],"anonymous":false}],"bytecode":{"object":"0x608060405234801561001057600080fd5b50610e6a806100206000396000f3fe608060405234801561001057600080fd5b50600436106100cf5760003560e01c80633644e5151161008c57806395d89b411161006657806395d89b41146101bb578063a9059cbb146101c3578063d505accf146101d6578063dd62ed3e146101e957600080fd5b80633644e5151461017357806370a082311461017b5780637ecebe001461019b57600080fd5b806306fdde03146100d4578063095ea7b3146100f25780631624f6c61461011557806318160ddd1461012a57806323b872dd14610141578063313ce56714610154575b600080fd5b6100dc610214565b6040516100e9919061096d565b60405180910390f35b6101056101003660046109d8565b6102a2565b60405190151581526020016100e9565b610128610123366004610ab6565b61030f565b005b61013360035481565b6040519081526020016100e9565b61010561014f366004610b2a565b6103ae565b6002546101619060ff1681565b60405160ff90911681526020016100e9565b6101336104c3565b610133610189366004610b66565b60046020526000908152604090205481565b6101336101a9366004610b66565b60086020526000908152604090205481565b6100dc6104e9565b6101056101d13660046109d8565b6104f6565b6101286101e4366004610b81565b61058d565b6101336101f7366004610beb565b600560209081526000928352604080842090915290825290205481565b6000805461022190610c1e565b80601f016020809104026020016040519081016040528092919081815260200182805461024d90610c1e565b801561029a5780601f1061026f5761010080835404028352916020019161029a565b820191906000526020600020905b81548152906001019060200180831161027d57829003601f168201915b505050505081565b3360008181526005602090815260408083206001600160a01b038716808552925280832085905551919290917f8c5be1e5ebec7d5bd14f71427d1e84f3dd0314c0f7b2291e5b200ac8c7c3b925906102fd9086815260200190565b60405180910390a35060015b92915050565b60095460ff161561035d5760405162461bcd60e51b81526020600482015260136024820152721053149150511657d253925512505312569151606a1b60448201526064015b60405180910390fd5b60006103698482610ca9565b5060016103768382610ca9565b506002805460ff191660ff831617905561038e6107eb565b600655610399610804565b60075550506009805460ff1916600117905550565b6001600160a01b0383166000908152600560209081526040808320338452909152812054600019811461040a576103e581846108a7565b6001600160a01b03861660009081526005602090815260408083203384529091529020555b6001600160a01b03851660009081526004602052604090205461042d90846108a7565b6001600160a01b03808716600090815260046020526040808220939093559086168152205461045c908461090a565b6001600160a01b0380861660008181526004602052604090819020939093559151908716907fddf252ad1be2c89b69c2b068fc378daa952ba7f163c4a11628f55a4df523b3ef906104b09087815260200190565b60405180910390a3506001949350505050565b60006006546104d06107eb565b146104e2576104dd610804565b905090565b5060075490565b6001805461022190610c1e565b3360009081526004602052604081205461051090836108a7565b33600090815260046020526040808220929092556001600160a01b0385168152205461053c908361090a565b6001600160a01b0384166000818152600460205260409081902092909255905133907fddf252ad1be2c89b69c2b068fc378daa952ba7f163c4a11628f55a4df523b3ef906102fd9086815260200190565b428410156105dd5760405162461bcd60e51b815260206004820152601760248201527f5045524d49545f444541444c494e455f455850495245440000000000000000006044820152606401610354565b600060016105e96104c3565b6001600160a01b038a16600090815260086020526040812080547f6e71edae12b1b97f4d1f60370fef10105fa2faae0126114a169c64845d6126c9928d928d928d9290919061063783610d7f565b909155506040805160208101969096526001600160a01b0394851690860152929091166060840152608083015260a082015260c0810188905260e001604051602081830303815290604052805190602001206040516020016106b092919061190160f01b81526002810192909252602282015260420190565b60408051601f198184030181528282528051602091820120600084529083018083525260ff871690820152606081018590526080810184905260a0016020604051602081039080840390855afa15801561070e573d6000803e3d6000fd5b5050604051601f1901519150506001600160a01b038116158015906107445750876001600160a01b0316816001600160a01b0316145b6107815760405162461bcd60e51b815260206004820152600e60248201526d24a72b20a624a22fa9a4a3a722a960911b6044820152606401610354565b6001600160a01b0381811660009081526005602090815260408083208b8516808552908352928190208a90555189815291928b16917f8c5be1e5ebec7d5bd14f71427d1e84f3dd0314c0f7b2291e5b200ac8c7c3b925910160405180910390a35050505050505050565b6000610969806107fd63ffffffff8216565b9250505090565b60007f8b73c3c69bb8fe3d512ecc4cf759cc79239f7b179b0ffacaa9a75d522b39400f60006040516108369190610d98565b60405180910390207fc89efdaa54c0f20c7adf612882df0950f5a951637e0307cdcb4c672f298b8bc66108676107eb565b604080516020810195909552840192909252606083015260808201523060a082015260c00160405160208183030381529060405280519060200120905090565b6000818310156108f95760405162461bcd60e51b815260206004820152601c60248201527f45524332303a207375627472616374696f6e20756e646572666c6f77000000006044820152606401610354565b6109038284610e0e565b9392505050565b6000806109178385610e21565b9050838110156109035760405162461bcd60e51b815260206004820152601860248201527f45524332303a206164646974696f6e206f766572666c6f7700000000000000006044820152606401610354565b4690565b60006020808352835180602085015260005b8181101561099b5785810183015185820160400152820161097f565b506000604082860101526040601f19601f8301168501019250505092915050565b80356001600160a01b03811681146109d357600080fd5b919050565b600080604083850312156109eb57600080fd5b6109f4836109bc565b946020939093013593505050565b634e487b7160e01b600052604160045260246000fd5b600082601f830112610a2957600080fd5b813567ffffffffffffffff80821115610a4457610a44610a02565b604051601f8301601f19908116603f01168101908282118183101715610a6c57610a6c610a02565b81604052838152866020858801011115610a8557600080fd5b836020870160208301376000602085830101528094505050505092915050565b803560ff811681146109d357600080fd5b600080600060608486031215610acb57600080fd5b833567ffffffffffffffff80821115610ae357600080fd5b610aef87838801610a18565b94506020860135915080821115610b0557600080fd5b50610b1286828701610a18565b925050610b2160408501610aa5565b90509250925092565b600080600060608486031215610b3f57600080fd5b610b48846109bc565b9250610b56602085016109bc565b9150604084013590509250925092565b600060208284031215610b7857600080fd5b610903826109bc565b600080600080600080600060e0888a031215610b9c57600080fd5b610ba5886109bc565b9650610bb3602089016109bc565b95506040880135945060608801359350610bcf60808901610aa5565b925060a0880135915060c0880135905092959891949750929550565b60008060408385031215610bfe57600080fd5b610c07836109bc565b9150610c15602084016109bc565b90509250929050565b600181811c90821680610c3257607f821691505b602082108103610c5257634e487b7160e01b600052602260045260246000fd5b50919050565b601f821115610ca4576000816000526020600020601f850160051c81016020861015610c815750805b601f850160051c820191505b81811015610ca057828155600101610c8d565b5050505b505050565b815167ffffffffffffffff811115610cc357610cc3610a02565b610cd781610cd18454610c1e565b84610c58565b602080601f831160018114610d0c5760008415610cf45750858301515b600019600386901b1c1916600185901b178555610ca0565b600085815260208120601f198616915b82811015610d3b57888601518255948401946001909101908401610d1c565b5085821015610d595787850151600019600388901b60f8161c191681555b5050505050600190811b01905550565b634e487b7160e01b600052601160045260246000fd5b600060018201610d9157610d91610d69565b5060010190565b6000808354610da681610c1e565b60018281168015610dbe5760018114610dd357610e02565b60ff1984168752821515830287019450610e02565b8760005260208060002060005b85811015610df95781548a820152908401908201610de0565b50505082870194505b50929695505050505050565b8181038181111561030957610309610d69565b8082018082111561030957610309610d6956fea2646970667358221220ab0f9dd5dde9e99eb97980ab313a81eb56911a2fa293ca31ccf96238bc44d31264736f6c63430008170033","linkReferences":{}},"methodIdentifiers":{"DOMAIN_SEPARATOR()":"3644e515","allowance(address,address)":"dd62ed3e","approve(address,uint256)":"095ea7b3","balanceOf(address)":"70a08231","decimals()":"313ce567","initialize(string,string,uint8)":"1624f6c6","name()":"06fdde03","nonces(address)":"7ecebe00","permit(address,address,uint256,uint256,uint8,bytes32,bytes32)":"d505accf","symbol()":"95d89b41","totalSupply()":"18160ddd","transfer(address,uint256)":"a9059cbb","transferFrom(address,address,uint256)":"23b872dd"},"id":13}